:1000000000000320D10100005DD8020091D702005A
:1000100091D7020091D7020091D7020091D7020038
:1000200091D7020091D7020091D702005DD802005B
:100030005DD8020091D702001105020001050200FF
:100040005DD802005DD802005DD802005DD80200D4
:100050005DD802005DD802005DD802005DD80200C4
:100060005DD802005DD802005DD802005DD80200B4
:100070005DD802005DD802005DD802005DD80200A4
:100080005DD802005DD802005DD802005DD8020094
:100090005DD802005DD802005DD802005DD8020084
:1000A000F1C50100E5C501005DD802005DD8020080
:1000B0005DD802005DD802005DD8020031D1020097
:1000C0005DD8020059D002005DD80200BDCF020009
:1000D0005DD8020021CF02005DD802005DD8020089
:1000E0005DD802005DD802005DD802005DD8020034
:1000F0005DD802005DD802005DD802005DD8020024
:100100005DD802005DD802005DD802005DD8020013
:100110005DD80200450F02005DD802005DD80200E4
:100120005DD802005DD802005DD802005DD80200F3
:100130005DD802005DD802005DD802005DD80200E3
:10014000490502005DD8020085CE02005DD802009C
:100150005DD802005DD802005DD802005DD80200C3
:100160005DD802005DD80200D9C501005DD802004B
:100170005DD802005DD802005DD802005DD80200A3
:100180005DD802005DD802005DD802005DD8020093
:100190005DD802005DD80200E1CD02005DD802000A
:1001A0005DD802005DD802005DD802005DD8020073
:1001B0005DD802005DD802005DD802005DD8020063
:1001C0005DD802005DD802005DD802005DD8020053
:1001D00008B5624B4CF220521A804DF628121A8054
:1001E00000BF00BF102223F80E2CA3F51F43DE3BF7
:1001F0004FF030621A605A4A9A605A4ADA605A4B93
:100200004FF470021A60594B594A1A60594B1A78C8
:10021000120703D51A7842F008021A70564B574954
:10022000AA221A70564A574B8B4204D252F8040F36
:1002300043F8040BF8E7544B544900228B4202D296
:1002400043F8042BFAE75249524A002352F823009C
:1002500041F823000133742BF8D14F4B4F4A8021D2
:1002600003F8011B9342FBD14D4B494A1A604D4B99
:100270008A221A70A3F5805324225A70A0221A7081
:100280009A799507FCD59A79D406FCD4464A937995
:1002900003F00C03082BFAD1444B60221A7002338E
:1002A0001A78802AFCD1404B00221A714B225A71D5
:1002B0009A799006FCD599793B4A4906FBD53C4B87
:1002C0003C4919600021596020231370937903F091
:1002D0000C030C2BFAD1384B384A1A60384A394C87
:1002E000136813F4807303D123604FF4A853136091
:1002F000354B364A1A60002507225D6043F8042C0E
:10030000334AC3F80C2D62B62CF0FAFF22682D4B4D
:10031000D2070CD52F4A30491D60156042F8041CE5
:1003200010221A6003F5805308332C4A1A602C4BB4
:100330001B785B060ED52B4A284B1168994209D1D0
:1003400024492548002323600B6041F8040C102148
:100350002160136031F064FE1EF028F90E20054084
:10036000823F04000100002B88ED00E0002008E03F
:100370000300008502D0074000E0074004AA0020E7
:10038000AC0404004096002000B00020604202202F
:10039000008C00200000000000E400E064E400E0C5
:1003A00008ED00E0005006400040064001E0074034
:1003B000448004400000070304800440C01007008C
:1003C00010D0034014D0034014E000E0BF4B030002
:1003D0000000202004D00340DE17B064A5C3945A67
:1003E00000F007401CE00340FFFFFFFFFFFFFFFF9F
:1003F000FFFFFFFFFFFFFFFFFFFFFFFFFFFFFFFF0D
:10040000FFFFFFFFFFFFFFFFFFFFFFFFDEF9FFFF23
:1004100010B5054C237833B9044B13B10448AFF33E
:1004200000800123237010BD00B0002000000000F8
:10043000A8040400084B10B51BB108490848AFF3E5
:1004400000800848036803B910BD074B002BFBD0A0
:10045000BDE81040184700BF0000000004B00020B5
:10046000A804040004AA002000000000704700BF98
:10047000036D33B11B7813F0700F14BF01200020FF
:100480007047406D30B190F8313013F0500F14BF09
:1004900001200020704700BF036D0BB101207047A1
:1004A000406D003018BF0120704700BF036D13B1CD
:1004B000D86900217047436D13B1186959697047B5
:1004C00018461946704700BF036D13B158690021E3
:1004D0007047436D13B193E80300704718461946FF
:1004E000704700BFD0B4039C16461F4634B1012CA0
:1004F0001ED0022C0DD00020D0BC7047046DDCB1A2
:10050000012B08BF002AF6D220461146D0BC17F0B6
:1005100071B9036DB3B1DA69B61847F10007012F5D
:1005200008BF002EE7D231461846D0BC17F062B99A
:10053000036D8BB15A69EFE7406D0028DBD0D0BC6A
:100540001DF0C8B9406D0028D5D0D0E90423921918
:100550007B41D0BC1DF0BEB9406D0028CBD0D0E9A6
:10056000002392197B41EAE7026D62B1137803F030
:10057000080303F0FF0003B3D3695069181A48BF9A
:100580006FF000407047416DC1B191F8313003F018
:10059000080303F0FF0083B1D1E90423D1E900018E
:1005A000101A30B463EB010100256FF000448D4256
:1005B00008BF844200D2204630BC704708467047CE
:1005C00000B5006983B08DF8071028B103680122D7
:1005D000DB680DF10701984703B05DF804FB00BF2D
:1005E000006980B100B5036883B09B6801220DF1FA
:1005F0000701984720B19DF8070003B05DF804FBA0
:100600004FF0FF30F9E74FF0FF307047006910B14D
:1006100003689B6918477047006910B103685B69FC
:1006200018474FF0FF307047006910B103681B692D
:1006300018477047006910B10368DB6818477047B6
:1006400000207047407C704770B4184B184D1B78E1
:100650002A78D9B2D2B2914222D0164B1C68531CD0
:10066000A34214D3002213461348C05CC0B2134EF9
:100670002A7032684AB1994238BF0919CB1A104919
:1006800009688B4201D80023137070BC70473F2B60
:1006900009D90C483F3A0068805CDAB2C0B2E6E79C
:1006A0004FF0FF30F1E7DAB2DEE700BF9C500120E7
:1006B0009D500120789E002004E9002048E9002098
:1006C000889C002044E90020064A074B10781B78DC
:1006D000C0B2DBB2984202D2044A12681044C01A77
:1006E000704700BF9C5001209D500120789E002043
:1006F000002070472DE9F04FB74C91B003EB430356
:1007000004EBC3041646069007910FCC0AAD0FC543
:1007100094E8030085E8030006F10C01019106F15D
:100720006001002304911B998DF8253001228DF87A
:1007300026300AABB14601EB020B8DF8242005925E
:100740000293029B53F8044B029314F0030204F04B
:100750000406C4F3011500F0C680531E069903EB8E
:10076000031301EB0310133020F00F00D9F804300D
:10077000002B00F0A380019951F80C1CC914C1F59D
:100780000071B3F5FE7FC9F8041080F2A18010AFAC
:10079000BA18039212F81C2C12B1321C18BF012295
:1007A00035B110AE2E4416F81C6C002E40F09F8020
:1007B00004F0C004C02C03D11B9C0F2C40F3F78025
:1007C000CF1A2037BF11D9F80C60D9F808E0834C54
:1007D000002A40F08A80A046A8F10405A0F1040C8C
:1007E00008F1FC082EE0B0F5007F40D0002839D099
:1007F000520082F4FF722244B2F800216FEA4242B2
:100800006FEA524292B202EBC10189B2C1F30E0209
:100810006FEA020A5FFA8AFA04EB4A0A1012BAF87F
:10082000002302F580625200C240080448BFD24350
:1008300055F8041F12B201EB8232454576444CF85C
:10084000042F22D0B21302F440703B44B0F5807FF5
:1008500099B2D2B2C7D1520082F4FF722244B2F8E8
:100860000021D0E704EB4202B2F80021CBE704EB11
:100870004202B2F800216FEA42426FEA524292B25B
:10088000C1E71A9BC3F800E05A60039B9DF814204F
:1008900003F81C2CD9F80C30D9F8082003EB82138C
:1008A000C9F80C30019B10330193049B09F1100926
:1008B0004B457FF446AF11B0BDE8F08F019B53F874
:1008C0000C3CDB14C3F50071C9F8041040F2FF13AF
:1008D000B1F5FE7FFFF65BAF002EDBD110AB1A4403
:1008E00002F81C6CD6E7079840E7804674E7069C40
:1008F000D9F80CE0D9F808A0013D05EB051504EB8B
:10090000051CCE1A0CF1130C20362CF00F0CB6116E
:10091000324C002A40F0AC80A046ACF1040CA8F1A7
:100920000408043800272FE0B1F5007F00F0A9800B
:10093000002900F0A180520082F4FF722244B2F834
:1009400000216FEA42426FEA524292B202EBC505C1
:10095000ADB2C5F30E01CA43D2B204EB4202091292
:10096000B2F8002302F580625200CA40290448BF51
:10097000D24358F8041F12B2013701EB8232402FE4
:10098000D64440F8042F80D05CF8042F72449213B0
:1009900002F440713344B1F5807FD2B29DB2C3D12D
:1009A000520082F4FF722244B2F80021CEE7CD1A41
:1009B0002035AD11D9F80C70D9F80880074C002A01
:1009C00058D1A4461A9AACF10406043892E80240C1
:1009D0000CF1FC0C36E000BF20E20300F0CC030079
:1009E000B1F5007F5CD0002955D0520082F4FF722F
:1009F0002244B2F800216FEA42426FEA524292B2B8
:100A000002EBCA0A1FFA8AFACAF30E01CA43D2B22B
:100A100004EB42020912B2F8002302F58062520090
:100A2000CA401AF4004F18BFD24356F8041F12B23E
:100A300092031144B44540F8041F474471463FF403
:100A400020AF964601EB0E0242FA0BF23A449213A3
:100A500002F440712B44B1F5807FD2B21FFA83FAC1
:100A6000BED1520082F4FF722244B2F80021C7E7DF
:100A7000804652E78446A5E704EB4202B2F8002123
:100A800064E704EB4202B2F800216FEA42426FEAE7
:100A9000524292B25AE704EB4202B2F80021AFE7A9
:100AA00004EB4202B2F800216FEA42426FEA52427E
:100AB00092B2A5E7036D23B11A7812F0700F18D126
:100AC0007047426D002AFBD092F8313013F0500F7E
:100AD00020D092F83130002BF2D0D2E9000150EA58
:100AE0000103EDD0002000210023C2E90001936141
:100AF00070475A6952B19A7822F020029A70426D7A
:100B0000002119615961002AE3D1D9E7426D002A19
:100B1000DFD1D5E7704700BF08B5044B1B685B0504
:100B200002D508462CF006FF012008BD34800440A1
:100B30002DE9F041304D95F8423006460C46002B29
:100B400048D0984246D095F8603033B19E4204D0E8
:100B5000EB78012B0BD0BDE8F081284B586880F86A
:100B6000A340903003F018FFEB78012BF3D1013E46
:100B7000F3B20F2B1FD8224F224D7A6D10680268F6
:100B80001268AA4243F0D00104F07F082AD11E4B1C
:100B90001B685B0506D508462CF0CCFE7B6D1868FB
:100BA00003681A68AA4223D1174B1B685B0502D55C
:100BB00040462CF0BFFE240404F4FE04360244F444
:100BC000504444F00D0406F470602043BDE8F04149
:100BD0002FF018BA094B186880F8A340903003F042
:100BE000DBFEB0E790477B6D186803681A68D9E7A9
:100BF00041469047DFE700BFF8DF0020C0EA002051
:100C0000A4580120190B00003480044070B505463B
:100C10000E46144624F068FA0E4BDB78012B00D008
:100C200070BD2146240630462A4604F0FE442FF0CB
:100C300009FB44F430443004013D44F00B0400F45B
:100C4000FE002D02204305F470652843BDE8704086
:100C50002FF0D8B9F8DF0020F8B52E4C94F84230C8
:100C600006460D461746B3B3984234D094F8603028
:100C70002BB19E4203D0E378012B13D0F8BD94F83A
:100C80004330244AAB42F6D892F84430AB42F2D318
:100C900092F8493083BB204A5378013B5370E37884
:100CA000012BEBD139463F062846324607F0FE4776
:100CB0002FF022FB47F400472804013E47F00807C5
:100CC00000F4FE003602384306F470663043BDE897
:100CD000F8402FF097B994F825300E4AAB42C5D8AA
:100CE00092F82630AB42C1D392F82B305BB90A4A56
:100CF0001378013B1370B9E7084B58682946183040
:100D000026F024FEC7E7054B18682946183026F060
:100D10001DFEECE7F8DF0020C8EA0020C0EA002052
:100D20002DE9F04705460E46144624F04DFF314BA1
:100D3000DB78012B01D0BDE8F087013DE9B20F2936
:100D400032D8DFF8BC902C4FD9F8543018680368BB
:100D50001B68BB4241F0900106F07F0A04F07F0857
:100D600035D1264A1268520507D508462CF0E2FD17
:100D7000D9F85430186803681B68BB4231D11F4A48
:100D80001268520507D550462CF0D4FDD9F85430DE
:100D9000186803681B68BB4220D1184B1B685B05B1
:100DA00002D540462CF0C6FD240604F0FE44330470
:100DB00044F41044280244F0090403F4FE031C43E5
:100DC00000F470602043BDE8F0472FF01BB998474E
:100DD000D9F85430186803681B68CEE74146984735
:100DE000E2E751469847D9F85430186803681B6801
:100DF000D1E700BFF8DF0020190B00003480044069
:100E0000A45801202DE9F043DB48DFEDDC7ADFED6B
:100E1000DC6ADFEDDC5A83B000F1080500224FF4F4
:100E20000054B7EE005A7F2650F8043B93F8201088
:100E300011B19A7783F8202093F8341019B183F810
:100E4000322083F8342093F8481019B183F84620F3
:100E500083F8482093F85C1019B183F85A2083F87E
:100E60005C2093F8701019B183F86E2083F870201D
:100E700093F8841019B183F8822083F8842093F8C2
:100E8000F41109B183F8F42193F8B510C3F8904038
:100E900007EE101A93F8B910C3F89420B8EEC77A89
:100EA0000129C3F89820C3F89C2083F8A62083F872
:100EB000A52083F8A42083F8A32083F8A720C3F8F3
:100EC000A82083F8A22083F8A12083F8A02087EE31
:100ED000276A00F04681C0F03B81022940F036814C
:100EE00035EE467A27EE257AA6EE267ABCEEC77A4C
:100EF0008DED017A9DF8041093F8B7700FB183F867
:100F0000A01093F8B6700FB183F8A11093F8B870E1
:100F10000FB183F8A21093F8C11007EE101A93F8DE
:100F2000C510B8EEC77A012987EE276A00F0038161
:100F3000C0F0F880022940F0F38035EE467A27EEC3
:100F4000257AA6EE267ABCEEC77A8DED017A9DF859
:100F5000041093F8C3E0BEF1000F06D093F8A0E0B0
:100F60008E4538BF8E4683F8A0E093F8C2E0BEF10C
:100F7000000F06D093F8A1E08E4538BF8E4683F867
:100F8000A1E093F8C4E0BEF1000F06D093F8A2C030
:100F9000614538BF614683F8A21093F8BB1007EE95
:100FA000101A93F8BF10B8EEC77A012987EE276AA6
:100FB00000F0AB80C0F0A080022940F09B8035EEAD
:100FC000467A27EE257AA6EE267ABCEEC77A8DED14
:100FD000017A9DF8041093F8BDC0BCF1000F06D053
:100FE00093F8A0C08C4538BF8C4683F8A0C093F816
:100FF000BCC0BCF1000F06D093F8A1C08C4538BF2F
:101000008C4683F8A1C093F8BEC0BCF1000F06D097
:1010100093F8A280414538BF414683F8A21093F867
:10102000C71007EE101A93F8CB10B8EEC77A012953
:1010300087EE276A53D049D3022945D135EE467A47
:1010400027EE257AA6EE267ABCEEC77A8DED017AD8
:101050009DF8041093F8C980B8F1000F06D093F8FA
:10106000A080884538BF884683F8A08093F8C88060
:10107000B8F1000F06D093F8A180884538BF8846A4
:1010800083F8A18093F8CA80B8F1000F06D093F8D6
:10109000A290494538BF494683F8A21057B9BCF120
:1010A000000F07D1BEF1000F04D1B8F1000F01D13C
:1010B00083F8A26085427FF4B7AE334BDB78012B17
:1010C00064D003B0BDE8F0830021C3E726EE266AB2
:1010D000BCEEC67A8DED017A9DF80410BAE726EED3
:1010E000C67AA6EE257ABCEEC77A8DED017A9DF818
:1010F0000410AFE700216EE726EE266ABCEEC67A42
:101100008DED017A9DF8041065E726EEC67AA6EE0D
:10111000257ABCEEC77A8DED017A9DF804105AE766
:10112000002116E726EE266ABCEEC67A8DED017A1E
:101130009DF804100DE726EEC67AA6EE257ABCEEE1
:10114000C77A8DED017A9DF8041002E70021D3E6FD
:1011500026EE266ABCEEC67A8DED017A9DF8041063
:10116000CAE626EEC67AA6EE257ABCEEC77A8DEDE3
:10117000017A9DF80410BFE6C0EA00200000C842D2
:10118000000000000000FE42F8DF00200C4B0D4A7A
:101190005B6D186803681B6893420DD10A4B1B688E
:1011A0005B0502D5FF202CF0C5FB4FF60F7003B096
:1011B000BDE8F0431FF0AABDFF219847F5E700BF47
:1011C000A4580120190B00003480044008B50E4BD0
:1011D000DB78012B00D008BD0C4B0D4A5B6D186805
:1011E00003681B6893420CD10A4B1B685B0502D550
:1011F000FE202CF09FFB4FF60F60BDE808401FF06B
:1012000085BDFE219847F6E7F8DF0020A4580120AD
:10121000190B00003480044008B50E4BDB78012B1D
:1012200000D008BD0C4B0D4A5B6D186803681B6845
:1012300093420CD10A4B1B685B0502D5FC202CF0B5
:1012400079FB4FF60F40BDE808401FF05FBDFC2161
:101250009847F6E7F8DF0020A4580120190B00009A
:101260003480044008B50E4BDB78012B00D008BD5C
:101270000C4B0D4A5B6D186803681B6893420CD1D8
:101280000A4B1B685B0502D5FB202CF053FB4FF685
:101290000F30BDE808401FF039BDFB219847F6E745
:1012A000F8DF0020A4580120190B0000348004400E
:1012B00008B50E4BDB78012B00D008BD0C4B0D4A56
:1012C0005B6D186803681B6893420CD10A4B1B685E
:1012D0005B0502D5FA202CF02DFB4FF60F20BDE860
:1012E00008401FF013BDFA219847F6E7F8DF002009
:1012F000A4580120190B00003480044010B51E4989
:101300001E4B0A780132D2B2A3FB02031B0903EB86
:101310004303A2EBC30313F0FF0382B00A7005D0AE
:10132000174BDB78012B0FD002B010BD154A0B70A4
:101330001468134B0194019CDB78126812480092E8
:10134000009A0260012BEFD1104B114A5B6D1868B7
:1013500003681B6893420CD10E4B1B685B0502D5DA
:10136000F8202CF0E7FA4FF60F001FF0CFFC02B088
:1013700010BDF8219847F6E72CB00020ABAAAAAA26
:10138000F8DF002050700120D4410220A458012031
:10139000190B00003480044008B50E4BDB78012B9C
:1013A00000D008BD0C4B0D4A5B6D186803681B68C4
:1013B00093420CD10A4B1B685B0502D5F6202CF03A
:1013C000B9FA4FF20F60BDE808401FF09FBCF6214C
:1013D0009847F6E7F8DF0020A4580120190B000019
:1013E000348004401D4BDB78012B00D0704770B572
:1013F0001B4E1C4D736D1A6813681B68AB42044684
:101400001FD119490968490506D5F3202CF092FA35
:10141000736D1A6813681B68AB4204F07F0018D123
:10142000114B1B685B0501D52CF084FA200400F4F5
:10143000FE0040F4734040F00200BDE870401FF031
:1014400065BC1046F3219847736D1A6813681B68D2
:10145000E2E7014610469847E8E700BFF8DF0020C2
:10146000A4580120190B00003480044038B50F4BFC
:10147000DB78012B00D038BD531E1B02090403F496
:10148000706301F4FE010B43050143F4504343F044
:101490000D03EDB21D43044628462EF0B3FD002C8B
:1014A000E9D12846BDE838401FF030BCF8DF002005
:1014B0001A4BDB78012B00D0704770B5184E194DD0
:1014C000736D0446186803681B68AB421CD1164A4A
:1014D0001268520506D5F1202CF02CFA736D1868AD
:1014E00003681B68AB4216D10F4B1B685B0502D526
:1014F00020462CF01FFA04F00F030C481B0418437D
:10150000BDE870401FF002BCF1219847736D186868
:1015100003681B68E6E721469847ECE7F8DF002000
:10152000A4580120190B00003480044002F110007F
:101530002DE9F041304D95F8423006460C46002B1F
:1015400048D0984246D095F8603033B19E4204D0DE
:10155000EB78012B0BD0BDE8F081284B586880F860
:10156000A340903003F018FAEB78012BF3D1013E41
:10157000F3B20F2B1FD8224F224D7A6D10680268EC
:101580001268AA4243F0D00104F07F082AD11E4B12
:101590001B685B0506D508462CF0CCF97B6D1868F6
:1015A00003681A68AA4223D1174B1B685B0502D552
:1015B00040462CF0BFF9240404F4FE04360244F43F
:1015C000504444F00D0406F470602043BDE8F0413F
:1015D0001FF09CBB094B186880F8A340903003F0C3
:1015E000DBF9B0E790477B6D186803681A68D9E7A4
:1015F00041469047DFE700BFF8DF0020C0EA002047
:10160000A4580120190B00003480044070B5054631
:101610000E46144623F068FD0E4BDB78012B00D0FC
:1016200070BD2146240630462A4604F0FE442EF0C2
:1016300009FE44F430443004013D44F00B0400F44E
:10164000FE002D02204305F470652843BDE870407C
:101650001FF05CBBF8DF0020F8B52E4C94F8423048
:1016600006460D461746B3B3984234D094F860301E
:101670002BB19E4203D0E378012B13D0F8BD94F830
:101680004330244AAB42F6D892F84430AB42F2D30E
:1016900092F8493083BB204A5378013B5370E3787A
:1016A000012BEBD139463F062846324607F0FE476C
:1016B0002EF022FE47F400472804013E47F00807B9
:1016C00000F4FE003602384306F470663043BDE88D
:1016D000F8401FF01BBB94F825300E4AAB42C5D82A
:1016E00092F82630AB42C1D392F82B305BB90A4A4C
:1016F0001378013B1370B9E7084B58682946183036
:1017000026F024F9C7E7054B18682946183026F05B
:101710001DF9ECE7F8DF0020C8EA0020C0EA00204D
:101720002DE9F04705460E46144624F04DFA314B9C
:10173000DB78012B01D0BDE8F087013DE9B20F292C
:1017400032D8DFF8BC902C4FD9F8543018680368B1
:101750001B68BB4241F0900106F07F0A04F07F084D
:1017600035D1264A1268520507D508462CF0E2F812
:10177000D9F85430186803681B68BB4231D11F4A3E
:101780001268520507D550462CF0D4F8D9F85430D9
:10179000186803681B68BB4220D1184B1B685B05A7
:1017A00002D540462CF0C6F8240604F0FE4433046B
:1017B00044F41044280244F0090403F4FE031C43DB
:1017C00000F470602043BDE8F0471FF09FBA9847CF
:1017D000D9F85430186803681B68CEE7414698472B
:1017E000E2E751469847D9F85430186803681B68F7
:1017F000D1E700BFF8DF0020190B0000348004405F
:10180000A45801202DE9F043DB48DFEDDC7ADFED61
:10181000DC6ADFEDDC5A83B000F1080500224FF4EA
:101820000054B7EE005A7F2650F8043B93F820107E
:1018300011B19A7783F8202093F8341019B183F806
:10184000322083F8342093F8481019B183F84620E9
:1018500083F8482093F85C1019B183F85A2083F874
:101860005C2093F8701019B183F86E2083F8702013
:1018700093F8841019B183F8822083F8842093F8B8
:10188000F41109B183F8F42193F8B510C3F890402E
:1018900007EE101A93F8B910C3F89420B8EEC77A7F
:1018A0000129C3F89820C3F89C2083F8A62083F868
:1018B000A52083F8A42083F8A32083F8A720C3F8E9
:1018C000A82083F8A22083F8A12083F8A02087EE27
:1018D000276A00F04681C0F03B81022940F0368142
:1018E00035EE467A27EE257AA6EE267ABCEEC77A42
:1018F0008DED017A9DF8041093F8B7700FB183F85D
:10190000A01093F8B6700FB183F8A11093F8B870D7
:101910000FB183F8A21093F8C11007EE101A93F8D4
:10192000C510B8EEC77A012987EE276A00F0038157
:10193000C0F0F880022940F0F38035EE467A27EEB9
:10194000257AA6EE267ABCEEC77A8DED017A9DF84F
:10195000041093F8C3E0BEF1000F06D093F8A0E0A6
:101960008E4538BF8E4683F8A0E093F8C2E0BEF102
:10197000000F06D093F8A1E08E4538BF8E4683F85D
:10198000A1E093F8C4E0BEF1000F06D093F8A2C026
:10199000614538BF614683F8A21093F8BB1007EE8B
:1019A000101A93F8BF10B8EEC77A012987EE276A9C
:1019B00000F0AB80C0F0A080022940F09B8035EEA3
:1019C000467A27EE257AA6EE267ABCEEC77A8DED0A
:1019D000017A9DF8041093F8BDC0BCF1000F06D049
:1019E00093F8A0C08C4538BF8C4683F8A0C093F80C
:1019F000BCC0BCF1000F06D093F8A1C08C4538BF25
:101A00008C4683F8A1C093F8BEC0BCF1000F06D08D
:101A100093F8A280414538BF414683F8A21093F85D
:101A2000C71007EE101A93F8CB10B8EEC77A012949
:101A300087EE276A53D049D3022945D135EE467A3D
:101A400027EE257AA6EE267ABCEEC77A8DED017ACE
:101A50009DF8041093F8C980B8F1000F06D093F8F0
:101A6000A080884538BF884683F8A08093F8C88056
:101A7000B8F1000F06D093F8A180884538BF88469A
:101A800083F8A18093F8CA80B8F1000F06D093F8CC
:101A9000A290494538BF494683F8A21057B9BCF116
:101AA000000F07D1BEF1000F04D1B8F1000F01D132
:101AB00083F8A26085427FF4B7AE334BDB78012B0D
:101AC00064D003B0BDE8F0830021C3E726EE266AA8
:101AD000BCEEC67A8DED017A9DF80410BAE726EEC9
:101AE000C67AA6EE257ABCEEC77A8DED017A9DF80E
:101AF0000410AFE700216EE726EE266ABCEEC67A38
:101B00008DED017A9DF8041065E726EEC67AA6EE03
:101B1000257ABCEEC77A8DED017A9DF804105AE75C
:101B2000002116E726EE266ABCEEC67A8DED017A14
:101B30009DF804100DE726EEC67AA6EE257ABCEED7
:101B4000C77A8DED017A9DF8041002E70021D3E6F3
:101B500026EE266ABCEEC67A8DED017A9DF8041059
:101B6000CAE626EEC67AA6EE257ABCEEC77A8DEDD9
:101B7000017A9DF80410BFE6C0EA00200000C842C8
:101B8000000000000000FE42F8DF00204FF60F705A
:101B90002EF038FA4FF60F7003B0BDE8F0431FF097
:101BA000B5B800BF08B5074BDB78012B00D008BDE6
:101BB0004FF60F602EF026FA4FF60F60BDE8084092
:101BC0001FF0A4B8F8DF002008B5074BDB78012B25
:101BD00000D008BD4FF60F402EF014FA4FF60F401C
:101BE000BDE808401FF092B8F8DF002008B5074BA9
:101BF000DB78012B00D008BD4FF60F302EF002FA33
:101C00004FF60F30BDE808401FF080B8F8DF002025
:101C100008B5074BDB78012B00D008BD4FF60F202D
:101C20002EF0F0F94FF60F20BDE808401FF06EB817
:101C3000F8DF002010B51749174B0A780132D2B2ED
:101C4000A3FB02031B0903EB4303A2EBC30313F043
:101C5000FF0382B00A7005D0104BDB78012B0FD048
:101C600002B010BD0E4A0B7014680C4B0194019C1D
:101C7000DB7812680B480092009A0260012BEFD1CA
:101C80004FF60F002EF0BEF94FF60F001FF03EF892
:101C900002B010BD2CB00020ABAAAAAAF8DF002029
:101CA00050700120D441022008B5074BDB78012B8E
:101CB00000D008BD4FF20F602EF0A4F94FF20F6074
:101CC000BDE808401FF022B8F8DF00200A4BDB789F
:101CD000012B00D0704710B5040404F4FE0444F452
:101CE000734444F0020420462EF08CF92046BDE8EF
:101CF00010401FF00BB800BFF8DF0020094BDB7865
:101D0000012B00D0704710B500F00F00064C000406
:101D1000044320462EF076F92046BDE810401EF020
:101D2000F5BF00BFF8DF002002F1100010B51D4B19
:101D300093F842207AB390422DD093F860202AB1D4
:101D4000904203D0DB78012B09D010BD164ADB7816
:101D5000526801F50054012BC2F89040F5D101F30F
:101D60000D0101F50051431E0C041B0203F47063C6
:101D700004F4FE041C4344F46044490401F0FE41B1
:101D800044F00E040C4320462EF03CF92046BDE8FA
:101D900010401EF0BBBF044A126801F50054C2F89F
:101DA0009040CAE7F8DF0020C0EA002070B51B4D64
:101DB00095F8423006460C4643B3984226D095F833
:101DC00060302BB19E4203D0EB78012B0AD070BD5E
:101DD000134B586880F8A340903002F0DDFDEB789B
:101DE000012BF4D12404731E04F4FE0444F4504483
:101DF0001B0203F4706344F00D041C4320462EF0D4
:101E000001F92046BDE870401EF080BF044B186801
:101E100080F8A340903002F0BFFDD0E7F8DF00204B
:101E2000C0EA002070B504460E46154623F05CF962
:101E30000E4BDB78012B00D070BD2D0605F0FE4562
:101E400045F430453604013C06F4FE0645F00B052A
:101E50002402354304F470642C4320462EF0D2F85B
:101E60002046BDE870401EF051BF00BFF8DF0020E3
:101E700070B5314C94F8423082B006460D46BBB383
:101E8000984235D094F8603033B19E4204D0E37864
:101E9000012B14D002B070BD94F843302649AB42F8
:101EA000F5D891F84430AB42F1D391F8493083BB77
:101EB00022494B78013B4B70E378012BEAD11206A3
:101EC00002F0FE422C0442F40042013E42F00802BD
:101ED00004F4FE043602144306F4706634432046CC
:101EE0002EF090F8204602B0BDE870401EF00EBF04
:101EF00094F825301049AB42C4D891F82630AB4253
:101F0000C0D391F82B306BB90C490B78013B0B70A7
:101F1000B8E70B4B019258682946183025F016FD9A
:101F2000019AC5E7064B019218682946183025F03A
:101F30000DFD019AE8E700BFF8DF0020C8EA0020A5
:101F4000C0EA002070B504460E46154623F03CFE5C
:101F50000E4BDB78012B00D070BD2D0605F0FE4541
:101F600045F410453604013C06F4FE0645F009052B
:101F70002402354304F470642C4320462EF042F8CA
:101F80002046BDE870401EF0C1BE00BFF8DF002053
:101F900070B50F4BDC78012C00D070BD04460346B1
:101FA000A0200D4616462EF07FF8002CF5D1701EAD
:101FB00000022D0405F4FE0500F47060284340F48F
:101FC000504040F00D00BDE870401EF09FBE00BFC5
:101FD000F8DF00202DE9F0478146884624F064FBB5
:101FE0002C4BDB78012B01D0BDE8F087DFF8B0A0E7
:101FF000294DDAF854301A6813681B68AB423CD19B
:1020000026490968480507D5F0202BF093FCDAF83B
:1020100054301A6813681B68B8F1000F1ED01F4FA8
:102020004C4609EB08060BE03968490506D52BF04C
:1020300081FCDAF854301A6813681B68A6420DD088
:1020400014F8011BAB420846EED010469847DAF868
:1020500054301A681368A6421B68F1D1AB4215D1FF
:102060000E4B1B685B0502D5F7202BF063FC414645
:102070004846BDE8F0472EF099B91046F021984740
:10208000DAF854301A6813681B68C5E71046F72160
:102090009847ECE7F8DF0020190B0000348004407B
:1020A000A45801202DE9F84F3D4F1F298A46884644
:1020B0008146A8BF4FF01F0A3E4607F120050024C5
:1020C00096F84230E2B26BB199450BD00134022C44
:1020D00006F11E0605F10105F2D1FB78012B1ED099
:1020E000BDE8F88F514615F8020C85F800A014F0F1
:1020F00055F82EF061FA83462A482EF00DFA8345F2
:10210000E4D1294B93F82820FF2A05D093F85320D7
:1021100042F0100283F8532026F012F9D6E709F1B5
:10212000FF395FFA89F30F2B1FD8204D204C6A6DC1
:10213000106802681268A24243F0C00108F07F06EE
:1021400025D11C4B1B685F0506D508462BF0F2FB1A
:102150006B6D186803681A68A2421ED1154B1B6884
:102160005B0502D530462BF0E5FB4FEA084808F442
:10217000FE084FEA092948F4404848F00C0809F4E1
:10218000706040EA0800BDE8F84F1EF0BFBD904700
:102190006B6D186803681A68DEE731469047E4E71C
:1021A000F8DF0020450C010080700120A4580120B8
:1021B000190B0000348004402DE9F84F294F1F29E6
:1021C0008A4689468046A8BF4FF01F0A3E4607F15F
:1021D0002005002496F84230E2B26BB198450BD04E
:1021E0000134022C06F11E0605F10105F2D1FB783F
:1021F000012B1ED0BDE8F88F514615F8020C85F86A
:1022000000A013F0CBFF2EF0D7F9834616482EF02E
:1022100083F98345E4D1154B93F82820FF2A05D094
:1022200093F8532042F0100283F8532026F088F8E8
:10223000D6E74FEA094404F4FE0408F1FF3844F4F9
:1022400040444FEA082808F4706844F00C0444EA5B
:10225000080420462DF0D6FE2046BDE8F84F1EF0BB
:1022600055BD00BFF8DF0020450C01008070012043
:1022700038B5214B93F84220B2B3904234D093F852
:1022800060202AB1904203D0DB78012B09D038BD01
:102290001A4ADB78526801F50054012BC2F89040CD
:1022A000F5D1054601F500500C462A46C0F3C6118B
:1022B00000F07F002DF06CFF04F30D0101F50051DB
:1022C000681E0B04000203F4FE0300F47060184360
:1022D00040F46040490440F00E0001F0FE41084324
:1022E000BDE838401EF012BD044A126801F50054E2
:1022F000C2F89040C3E700BFF8DF0020C0EA00202A
:1023000038B504460D4624F0CFF9074BDB78012B96
:1023100000D038BD2946204626F042FF29462046F7
:10232000BDE838402EF042B8F8DF0020036D2BB135
:102330001A7812B1184615F08FB97047406D002811
:10234000FBD016F0D3B900BF2DE9F043012B95B0B7
:10235000074600F0AA80022B40F2022318BF002398
:102360004FF47A700024DFF89C910290081D8DF8DC
:1023700004408DF80C4012941394CDF8009013D0C3
:10238000D1F88454002D00F09D8004AE05F58961DC
:1023900030468DF810408DF811408DF8124012969D
:1023A00015F014FC28BB1290139C002C64D05C2008
:1023B00039F056F805464F4B4F489DF80410029AE5
:1023C00028609DF80C60AB6005F1180000232973AC
:1023D0002A6121462E7568656B602B6585F849304A
:1023E00085F84A3085F84B303422984631F0CEFFDC
:1023F00024E0DDF84880B8F1000FD5D05C2039F03A
:102400002FF805463C4B2B609DF804603948029933
:102410009DF80C202E73002305F11804A860296193
:102420002A752C656B606B652B766B76AB764646B2
:102430000FCE0FC40FCE0FC43368236000244FF4B7
:102440007A702E492E4BC5F8089001223D61AC658B
:102450003C713C73B86039606A600093B8F1000F5A
:1024600014D098F800301BBB88F8003088F8023090
:10247000384615B0BDE8F0834FF47A711F4A204BFF
:102480003C713C733C61B9603A600093139C002C32
:10249000EED0204616F02AF90023384684F8313071
:1024A00084F8333015B0BDE8F08344F2022357E7D7
:1024B000404615F0D1F888F8004088F8024000281E
:1024C000E4D0D5E7D1F8881400293FF46DAF04AC0F
:1024D00001F5896120468DF841508DF842508DF804
:1024E000435013941BF0CEFFDDF84880002882D1C2
:1024F000139080E7C4DF03001CD20300DCF3030069
:10250000F8D10300F8D103008A79A2F150031B0629
:102510003BD42DE9F0474B79056D0F7991F8028096
:102520004E7891F800905C1C84B092B2E4B235B160
:10253000297809072BD4002004B0BDE8F087406D4E
:102540000028F8D090F831100907F4D5A2F1500115
:102550007F29F0D80C3BDBB2F32BECD97B1E1E2B72
:10256000E9D8B8F1170FE6D83B2EE4D8B9F13B0F04
:10257000E1D8CDF80C9002968DE88001234602F256
:102580006C72042116F0A6F9D6E700207047503A85
:102590001FFA82FABAF17F0FCDD80C3BDBB2F32BD6
:1025A000C9D97B1E1E2BC6D8B8F1170FC3D83B2E36
:1025B000C1D8B9F13B0FBED8284615F04DF8002818
:1025C000B9D0A868A969283001221AF015FB0028A3
:1025D000B1D0AB8803F00F0310EB4310ABD0760102
:1025E00047EA441446EAC82844EA4A2A48EA59090C
:1025F000AC68A0F81690A0F818A094F82830DD0771
:102600000AD494F83832D8070DD4206803681B6ABE
:1026100004B0BDE8F047184704F128001AF0C8FAE2
:10262000002888D0EDE704F50E701AF0C1FA0028F2
:1026300081D0EAE78A79A2F150031B063BD42DE949
:10264000F0474B79056D0F7991F802804E7891F83B
:1026500000905C1C84B092B2E4B235B129780907CD
:102660002BD4002004B0BDE8F087406D0028F8D0DE
:1026700090F831100907F4D5A2F150017F29F0D864
:102680000C3BDBB2F32BECD97B1E1E2BE9D8B8F147
:10269000170FE6D83B2EE4D8B9F13B0FE1D8CDF8BF
:1026A0000C9002968DE88001234602F26C720221A2
:1026B00016F010F9D6E700207047503A1FFA82FA58
:1026C000BAF17F0FCDD80C3BDBB2F32BC9D97B1EFF
:1026D0001E2BC6D8B8F1170FC3D83B2EC1D8B9F1FD
:1026E0003B0FBED8284614F0B7FF0028B9D0A86821
:1026F000A969283001221AF07FFA0028B1D0AB88EE
:1027000003F00F0310EB4310ABD019F0010318BF17
:1027100064237601437347EA441446EAC828AD6847
:1027200044EA4A2A48EA5909A0F80E90A0F810A0F5
:1027300095F82830DC070AD495F83832D8070DD43C
:10274000286803681B6A04B0BDE8F047184705F124
:1027500028001AF02DFA002883D0EDE705F50E7059
:102760001AF026FA00283FF47CAFE9E7F8B5046DCB
:102770000D46002C35D0237863BBA068A1692830B2
:1027800000221AF039FA50B3A38803F00F0310EBBC
:10279000431024D0827DC47D037E417E42EA042220
:1027A00043EA012303B9D2B102F01F04C3F343107B
:1027B0005912C2F345166400013801F5EA6103F0CD
:1027C0001F03D21268712C70A9712B716E70AA70E0
:1027D0000120F8BD204614F03FFF0028CDD1002095
:1027E000F8BD466D002EFAD0306AB76AD0F83814BA
:1027F000736AD0F82C2490F845E43940023B02EB90
:10280000512103FA0EF3224600F5047019441AF020
:10281000F3F90028E3D0B36AC3F30803C018DED08D
:10282000C3898289BEE700BFF8B5046D0D46002C50
:1028300035D0237863BBA068A169283000221AF044
:10284000DBF950B3A38803F00F0310EB431024D03F
:10285000827BC47B037C417C42EA042243EA01235D
:1028600003B9D2B102F01F04C3F343105912C2F3EB
:1028700045166400013801F5EA6103F01F03D21226
:1028800068712C70A9712B716E70AA700120F8BD4F
:10289000204614F0E1FE0028CDD10020F8BD466DA1
:1028A000002EFAD0306AB76AD0F83814736AD0F8BC
:1028B0002C2490F845E43940023B02EB512103FA05
:1028C0000EF3224600F5047019441AF095F9002819
:1028D000E3D0B36AC3F30803C018DED0438902898A
:1028E000BEE700BF2DE9F0470C6DB24F98B0002352
:1028F0004FF47A728DF8143005468DF81C3016931B
:10290000179306920497002C00F0E6800DF1200842
:102910008DF820308DF821308DF82230CDF8588098
:10292000237813F0700F78D0D4F814E01EF01F064F
:1029300073D1B14601220DF10F0120464FEA5E1A14
:1029400014F0B0FF40B201288DF80F000AF00F0319
:1029500063D1A26861695B01383201F11F0ED118A1
:10296000C4F814E059D0D35C002B56D02E2B07D0DE
:10297000E52B05D0CA7A100704D50F2A00F0FE8097
:102980000026D7E7002E00F009814A78D80140EAF6
:10299000530313448878C3F3460242EAC31350FA40
:1029A00083F3C3F34602C87842EAC31350FA83F3B1
:1029B000C3F34602087942EAC31350FA83F3C3F320
:1029C0004602487942EAC31350FA83F3C3F346023E
:1029D000887942EAC31350FA83F3C3F34602C879F5
:1029E00042EAC31350FA83F00A7AC0F3460343EA7B
:1029F000C01352FA83F0C0F346024B7A897A42EA56
:102A0000C01253FA82F3C3F3460242EAC31351FAE7
:102A100083F3DBB24B4500F0C18000231693179C73
:102A2000002C41D05C2038F01BFD634A9DF8141047
:102A30000260804601739DF81C20604E069B88F85A
:102A40001420183021460024C8F80860C8F8103057
:102A5000C8F85400C8F80440C8F8504088F8494005
:102A600088F84A4088F84B40342231F08FFC002629
:102A70004FF47A705249534BC8F808700122C5F8D8
:102A80001080C8F858602E712E73A8602960C8F8AD
:102A90000420049394B12378002B77D12846237027
:102AA000A37018B0BDE8F0874FF47A71444A454BE3
:102AB0002C712C732C61A9602A600493179C3CB183
:102AC000204615F013FE002384F8313084F83330AB
:102AD000284618B0BDE8F087496D00299FD008A8A6
:102AE0008DF851408DF852408DF85340179091F871
:102AF000313013F0500F3ED0D1E90023002302F013
:102B00001F02134337D1234622461BF0ADF988B389
:102B1000169C002C83D05C2038F0A2FC8046264B0B
:102B2000C8F800309DF814E0244806999DF81C2050
:102B300088F80CE0002308F11806C8F80800C8F867
:102B4000101088F81420C8F85060C8F80430C8F88D
:102B5000543088F8183088F8193088F81A30A646AA
:102B6000BEE80F000FC6BEE80F000FC6DEF800304B
:102B700033607CE7169C00231793CAE75A067FF55B
:102B8000D9AE03F01F0691F80D90D3E6204614F05D
:102B900063FD2670A670002890D099E700961FFA72
:102BA0008AF221464046002314F0A8FF00283FF493
:102BB00034AFADE7F8D103001CD20300C4DF03003B
:102BC000DCF30300F8D103002DE9F04F846D8BB0E6
:102BD0001CB120460BB0BDE8F08F05464FF4807065
:102BE00038F03EFC0746A865002800F09180D5F833
:102BF00050800470B8F1000F22D08DF804408DF899
:102C000005408DF8064098F80030002B00F08380D6
:102C100098F80320002A00F06A81D8F80C300DF1F2
:102C20000409002B40F09C804846D8F8081014F0A6
:102C3000C5FD002840F0A580AC6D00233B70C8E7BF
:102C4000D5F85490B9F1000F00F04F8199F8313068
:102C5000002B60D099F83030012B40F2858144463A
:102C600006464FF0020A00F1FF080022514648468E
:102C70001AF0A0FB0028DFD00378C12BDCD100F1D3
:102C80001E0129E003F5105292B2B2F5806FD3D243
:102C9000CD4AA4022240C3F30903134303F5803352
:102CA000B3F5803F9E46C6EB080236D2022AC3D94E
:102CB0004FEA1E32CEF385130EF03F0E62F01F0274
:102CC00063F07F036EF07F0E3270737086F802E05F
:102CD00003360024884237D030F8023F002CD1D18F
:102CE00003F5205292B2B2F5006F0CD3A3B37F2B41
:102CF0009E46C6EB080200F23981002A9CD0337050
:102D00000136E7D198E7B2F5806F95D21C46E1E72E
:102D1000AE4CAC655DE73C468FE7032A8CD99A0C34
:102D200062F00F02C3F305343270C3F3851203F06F
:102D30003F0364F07F0462F07F0263F07F037470EE
:102D4000B270F3700436C4E70AF1010A99F8303022
:102D50005FFA8AFA534588D20023AC6D337038E7A6
:102D60002146242248462FF09DF9D8F80820D8F8AB
:102D70000C300392102001218DF804008DF806100C
:102D8000099398F80330002B75D03E4600244FF08D
:102D9000010AB8F80410CAEB010189B2490148469A
:102DA00014F028FD00283FF447AF069B01220DF1E7
:102DB00003014846C3F3431B14F074FD40B20128DD
:102DC0008DF803007FF438AF039A06994FEA4B134E
:102DD00038321F31D01806913FF42EAFC17A0F2937
:102DE0007FF42AAFD35C03F01F039A457FF424AF2E
:102DF0000430002107F1FF0E0429CBB254D90A2B6D
:102E000094BF03884388D4B303F5105292B2B2F54D
:102E1000806FBFF411AF6C4AA4022240C3F30903D0
:102E2000134303F58033B3F5803F9C46C6EB0E0297
:102E300043D2022A7FF600AF4FEA1C34CCF385124E
:102E40000CF03F0364F01F0462F07F0263F07F0325
:102E500034707270B3700336002401310D2900F113
:102E60000200C9D10AF1010A98F803305FFA8AFA20
:102E700053458ED237460023AC6D3B70A9E603F56F
:102E8000205292B2B2F5006F11D3002BF2D07F2BFB
:102E90009C46C6EB0E0200F28280002A3FF4CCAEC4
:102EA00033700136D9D1C7E630F8033CABE7B2F551
:102EB000806FBFF4C1AE1C46CFE7032A7FF6BCAEDD
:102EC0009A0C62F00F02C3F305343270C3F385121B
:102ED00003F03F0364F07F0462F07F0263F07F033E
:102EE0007470B270F3700436B6E7044671E613F0FE
:102EF000600604D02F2344700370044669E6D8F8B6
:102F00000800D8F818102830324619F075FE00284D
:102F1000B1D0B8F8043003F00F0310EB431EAAD071
:102F200032463146734608260EE09EF80C40264293
:102F300001D02030C0B2FF290C469CD00131385559
:102F4000C9B201320C2A0BD0082A187822D0A0F17D
:102F50004104192C03F10103E7D92028F1D0EAE755
:102F60000023AC6D7B5434E60646F5E6B3F5006FFE
:102F7000BFF49CAE012A7FF65FAE9C09324664F036
:102F80003F0402F8024B03F03F0363F07F037370CA
:102F900016469EE62028E3D010262E20CBE7B3F578
:102FA000006FBFF446AF012A7FF646AE9C09324659
:102FB00064F03F0402F8024B03F03F0363F07F0329
:102FC0007370164648E700BF00FC0F001CB00020DD
:102FD00038B50446806D18B138F04AFA0023A3656D
:102FE000256D8DB12B7823B92B70AB700023236531
:102FF00038BD284614F030FB00232B70AB7000283E
:10300000F4D1656D15B938BD656D5DB1284615F013
:103010006DFB002385F8313085F8333000B938BDB9
:10302000636538BD38BD00BF38B50446806D294B97
:10303000236018B138F01CFA0023A365256D002D1C
:1030400037D02B78A3B92B70AB7000232365224BAC
:10305000A360656D3DB1284615F048FB002385F857
:10306000313085F83330204638F002FA204638BD3A
:10307000284614F0F1FA00232B70AB700028E4D13D
:10308000656DCDB9256D144BA360002DE1D02B7873
:1030900033B920462B70AB7038F0EAF9204638BDC2
:1030A000284614F0D9FA00232B70AB700028D0D03A
:1030B000D9E7656D002DCAD0284615F017FB00230F
:1030C00085F8313085F833300028DBD06365256D15
:1030D000D9E700BF1CD20300F8D1030038B504467D
:1030E000806D264B236018B138F0C2F90023A36528
:1030F000256D002D31D02B788BB92B70AB70002350
:1031000023651F4BA360656D3DB1284615F0EEFAAF
:10311000002385F8313085F83330204638BD284605
:1031200014F09AFA00232B70AB700028E7D1656D7C
:10313000B5B9256D124BA360002DE4D02B781BB9D7
:103140002B70AB70204638BD284614F085FA00235A
:103150002B70AB700028D6D0DFE7656D002DD0D086
:10316000284615F0C3FA002385F8313085F833304E
:103170000028DED06365256DDCE700BF1CD20300AC
:10318000F8D1030010B5044600690D4B236018B157
:103190004368013B436023B1204638F069F920467B
:1031A00010BD0368DB6A984720690028F4D00368E3
:1031B0005B689847204638F05BF9204610BD00BF99
:1031C000DCF3030010B5044638F052F9204610BD78
:1031D00010B5044638F04CF9204610BD10B5044631
:1031E00038F046F9204610BDF0B5046D83B0002CD0
:1031F0002FD0012B08BF002A03D30025284603B097
:10320000F0BD1146204614F0F5FA05460028F4D02A
:10321000A3789907F1D5236A002BEFD02169002903
:1032200062D1019321621946A06815F00DFF0028B4
:10323000E3D0A37822786169E16163F07F03A37032
:10324000002ADBD0204614F007FA05460028D4D027
:10325000D4E7446D002CD0D020461AF03BFB054645
:103260000028CAD094F833309A07C6D5E1690029FE
:10327000C4D003F0400202F0FF00002A43D0206ACD
:10328000D4F818E090F84524D4E902670932D2B2A4
:1032900016F1FF36C2F1200C47F1FF3726FA02F58E
:1032A00007FA0CFC203A27FA02F245EA0C0515430E
:1032B0006A1CBEF1000F33D00139CEEB01010A4484
:1032C0000EF101010191002A3DD1D4E9000163F022
:1032D0007F03C4E90201C4E9040184F833302046C5
:1032E00015F004FA054689E702AA002342F8043DD6
:1032F000A06815F065FF0028FFF67FAF13D1019B92
:10330000002B96D08FE7A3691BBB0191E361206A74
:1033100015F096F800283FF470AF94F83330D4E7F6
:10332000C4F81CE0CEE7216901297FF666AFA068EA
:10333000C36999423FF661AF6FF0704215F0FCFD32
:103340000028DCD159E72CF067FD00283FF455AF89
:10335000E3E702AA194642F8040D206A15F0A8F91D
:103360000028FFF64AAF03D101990029D5D0CEE756
:10337000A569206A012D7FF640AFD0F830340133C3
:103380009D423FF63AAFD0F82414012200F50470B4
:1033900001EBD51119F030FC00283FF42EAFAB0043
:1033A000C3F308034FF0FF32C250DDE7036D13B1E2
:1033B000184614F077BA406D08B11AF025BB4FF0EB
:1033C000FF307047F0B5046D83B094B101220DF168
:1033D000070120466669256914F064FA012808BFD0
:1033E0009DF80700666118BF4FF0FF30256103B0FC
:1033F000F0BD446DA4B101220DF107012046D4E9CE
:103400000067A5691AF000FB012808BF9DF80700B6
:10341000A56118BF4FF0FF30C4E9006703B0F0BDED
:103420004FF0FF30E3E700BF036D13B1184614F00F
:1034300067BD2DE9F04F446D83B0002C00F0318161
:1034400094F833309D0740F1A180180789469346D0
:1034500000F19480D4E90023BBF1000F7AD0D84664
:10346000206AD0F838541540C5F3080A002D40F002
:103470009D80A369002B00F0C68094F8332051068C
:1034800040F1E080D4E9026790F84524E16909320F
:10349000D2B216F1FF3647F1FF37C2F1200ED64007
:1034A00007FA0EFE203A46EA0E0627FA02F2164303
:1034B00031448B4274D2591CA161D0F82C6490F82D
:1034C00045E402396A0A164401FA0EF7F119BAF115
:1034D000000F40F09180B8F5007F69D2D4E9042351
:1034E000D4E90067B8F5007F454628BF4FF4007562
:1034F0009F4208BF964234BF0122052200F50470A6
:1035000019F07AFB002841D050442A464946AA4483
:1035100030F03CFFBAF5007F00F0B580284600216E
:10352000D4E90023D4E9046712184B419F4208BF35
:103530009642A944C5EB0808C4E9002307D294F8D1
:103540003310C4E9042361F07F0184F83310B8F12B
:10355000000F85D1D4E90201994208BF9042C0F022
:10356000A280574B1B68002B00F0A78094F83330E3
:1035700063F07F03584684F833300EE0D4E9042327
:1035800020461AF0A7F900287FF464AF94F832308F
:1035900043F0010384F83230002003B0BDE8F08F1F
:1035A000204619F097FF0028F0D0206AA16984E72F
:1035B000B8F5806F2BD3012303FA0EF39D1A4FEA5F
:1035C0005823D0F81C22AB4228BF2B4691424FEA29
:1035D000432508D8CE18B24205D24FF0FF3280F80A
:1035E00010A2C0F81C22D0F8140206684A46B66A37
:1035F000B047002892D1C9E7CAF50075454528BFF4
:10360000454601227AE7E16999B1A16155E7D0F811
:103610001C32994230D0D0F8140203684A465B6AE3
:1036200098470028B2D04FF4007000214FF4007585
:1036300076E7204619F04EFF0028A7D0A169E16186
:10364000206A3AE7D0F83024013293429ED8D0F86D
:103650002414019300F5047001EBD3112CF0B8FB96
:10366000002893D0019B9B00C3F30803C1584A1C58
:1036700096D0A161206A20E74FF0FF3380F810A2B6
:10368000C0F81C32C7E7206A90F81032DB077FF5DC
:1036900045AF00F5047019F08BFA00287FF43EAFB7
:1036A00074E7204679E794F8331061F07F01C4E9AC
:1036B0000223584684F833106FE758466DE700BF81
:1036C000A8500120084611461DF0C2B910B50846A1
:1036D000144611462AF0B8F9204610BD30B50468EA
:1036E000B4F5805F83B005460FD20B4B1B78DB0728
:1036F0000DD504F1A0531B78DBB2994202D02046CD
:103700002AF058FB284603B030BD0023F5E70191AD
:103710002AF0DEFA0199ECE70100024010B50446F8
:1037200000690A4B236018B14368013B43600BB149
:10373000204610BD0368DB6A984720690028F7D04F
:1037400003685B689847204610BD00BFDCF30300A8
:1037500070B5044608460D4631F012FF2368024654
:10376000294620465B68BDE870401847704700BF97
:10377000704700BF704700BF002310B4114C417266
:10378000026104600372C36041B1194600E002693E
:1037900042F82310427A01339A42F8DC0A4B1A6845
:1037A0000AB90CE01A465369002BFBD15061002383
:1037B00043618380C38083725DF8044B7047186057
:1037C000F5E700BF48D90300E00A01200020704758
:1037D0002DE9F04FAE4E96F84F3003F010028FB047
:1037E000002A40F01C8102F0FF01AA4AAA48AB4F10
:1037F000AB4C82F88012AB4D40F203123A6084F871
:1038000080120260287843F010033F2886F84F307A
:1038100008D8A54B03EBC00453F83000636880F868
:1038200080121A606B783F2B0BD89F4A02EBC300C3
:1038300052F83310436840F20312002081F88002EE
:103840001A602A7D00233F2A6B602B720AD89649A2
:1038500001EBC20051F83210426881F8803240F228
:10386000031313606B7D3F2B0BD88F4A02EBC30011
:1038700052F83310436840F20312002081F88002AE
:103880001A600027AF612F77DFF83C82874AD8F8AB
:1038900000300D930D9B12689B1AB3F5FA6F00F27E
:1038A0001581834C95F908307E4A102B00F0E38097
:1038B000202B40F0B8804FF00009102F82F80890BC
:1038C00000F02683202F00F01F83724B744A93F878
:1038D000003292F80072DBB2FFB2CA46002B40F011
:1038E0007981744996F8502073480B704FF0FF3E71
:1038F000012142F00803C0F800E0E170002286F8E0
:1039000050306A60A37873B36B4B1A68D8F80030F4
:103910000793079B9B1AB3F5FA7F24D301236370A7
:103920002CF04AFE834665482CF0F6FD834500F0F6
:10393000CB8196F851306148BBF1FF0F15BF23F0E2
:10394000080323F0100343F0100343F0080386F844
:1039500051302CF0F9FE002323706370A370E370E4
:1039600023716371A37119F1020F39DA96F850309F
:10397000002F40F01C814F4A4F49577043F0080315
:103980004FF0FF30012286F850304860A2720023C9
:10399000AB61637A0BB3484B5A68D8F800300C938C
:1039A0000C9B9B1AB3F5FA7F17D3454D2868183046
:1039B00012F07AFD6868183012F076FD0023E3718A
:1039C00023726372A372E372237363732370637051
:1039D000A370E37023716371A3710FB0BDE8F08F22
:1039E000BAF1020F40F3D28096F85030002F00F069
:1039F000F880012243F00203227386F850302CF045
:103A0000DBFD06462F482CF087FD864202D02D486C
:103A10002CF09AFEAAF10403AB61637ABAE7214D58
:103A200095F91C7030E70021102F0A4629D0202F6D
:103A300040F05E8200236FF0030A2B77D146154BCE
:103A4000174893F8003290F800720232DBB2FFB2EE
:103A5000FFF644AF022940F38880002B00F0CE80AF
:103A600096F85030012243F0020362710439696014
:103A700086F8503046E700230421102F13720A46BF
:103A8000D5D100234FF0040A2B77D146D7E700BFEA
:103A9000807001204C08FE43349004404CA0044048
:103AA0003400FE430079012058EA030054700120DD
:103AB000287901204496002024B00020450C010004
:103AC000C0EA0020F5090100507001202CF074FDBF
:103AD0000446C8482CF020FD8442C74C7FF4E2AE77
:103AE00096F82A90C54A0023B9F1FF0FE3712372BB
:103AF0006372A372E3722373637323706370A370A2
:103B0000E37023716371A37100F0ED8092F8483087
:103B10004B45FFF4C7AE92F8523003F0400101F07C
:103B2000FF0000297FF4BEAE92F8281089453FF4CB
:103B3000B9AE03F07F0343F04003FF2982F852300F
:103B400082F82A1092F8513000F0158192F8411055
:103B500082F8421003F07F0382F85130002386F888
:103B6000409086F8413073649CE6002B55D1A44AFE
:103B7000117800293FF4C6AED8F800100391A1498E
:103B80001370039A0A600123A370BFE6002F5FD170
:103B90009B4B5A78002A00F09580D8F800200892B4
:103BA0009849089A5F7001234A606372F5E6012222
:103BB00043F00403627386F850302CF0FDFC064697
:103BC0008C482CF0A9FC86423FF4E1AE89482CF0E9
:103BD000BBFDDCE696F85030012243F00403A271ED
:103BE0008CE68749874A4F7043F010034FF0FF314E
:103BF00086F8503001235160E3720BE7804896F855
:103C00005020DFF800E203704FF0FF3C012042F04B
:103C10001003CEF800C0207128E7794B1A78002AEB
:103C20007FF470AE7748A2700268DFF8CCE1012122
:103C3000002A1970D8F80030C0F299800593059BCE
:103C400071489B1AB3F5FA7F7BD38EF801108AE690
:103C50006B4D6B78002B35D16A4963724A68664FA9
:103C60000120002A68707CDBD8F800100A910A99BC
:103C7000DFF894E1891AB1F5FA7FBFF4AEAEDEF851
:103C800000100B910B998A1A132A7FF6A6AE96F8AC
:103C90002A90F871B9F1FF0F584A00F0A580AF786B
:103CA000002F00F0928096F828205449FF2A00F057
:103CB000EC8091F8522042F0040281F85220002258
:103CC000AA7067E6637A65E696F8503043F0010320
:103CD00086F8503024F060FF24F032FB464A00237F
:103CE000937053703FE692F82C30FF2B3FF4DAAD1F
:103CF00092F848109942FFF4D5AD92F8521001F0B5
:103D0000400000F0FF0E00287FF4CCAD92F82800B0
:103D100082F8403061F03F01FF2882F8521082F8AB
:103D20002A0092F851303BD092F8411082F84210AC
:103D300063F07F0382F85130002386F841307364CA
:103D4000B0E503680693069B9A1A132A7FF60BAE1A
:103D500096F850308EF8001043F0010386F850308A
:103D600001E6D8F800300993099B4B6035E60493CF
:103D7000049B0360F7E592F82BE082F8420063F0C1
:103D80007F0392F84D10106882F8513082F82CE0D1
:103D900001922AF0EFFB019A037D82F82B30DDE6D9
:103DA00092F82BC092F84D10106882F842E063F050
:103DB0007F0382F8513082F82CC001922AF0DAFB9E
:103DC000019A037D82F82B30B6E72CF0F5FB05460F
:103DD00008482CF0A1FB854218D096F8503043F0EB
:103DE000200386F85030F8E592F82C20002A3FF4A2
:103DF0005AAF54E7F50901002879012080700120AD
:103E00004496002024B0002050700120B9F1FF0F2B
:103E1000E7712772A772E77227736773277067705D
:103E2000A770E77027716771A77132D096F8483094
:103E30004C4C4B45FFF4D1AD94F8523003F04002A6
:103E400002F0FF05002A7FF4C8AD94F828209145C0
:103E50003FF4C3AD03F07F0343F04003FF2A84F82F
:103E6000523084F82A2094F8513055D094F84120EB
:103E700084F8422003F07F0384F85130002386F851
:103E8000409086F841307364A7E52CF01BFC637A00
:103E900015E796F82C20334CFF2A3FF49EAD94F89A
:103EA00048309342FFF499AD94F8523003F040014A
:103EB00001F0FF0500297FF490AD94F8281084F8F4
:103EC000402063F03F03FF2984F8523084F82A1021
:103ED00094F8513033D094F8412084F8422063F0B4
:103EE0007F0384F85130002386F84130736474E511
:103EF0001D4B1E4A93F8003292F800724FF00009F1
:103F0000DBB2FFB2CA46A5E56FF00302114691E5A8
:103F10006FF003021146B4E594F82B2094F84D108D
:103F2000206884F8425063F07F0384F8513084F8AD
:103F30002C202AF01FFB037D84F82B309EE794F899
:103F40002B2094F84D10206884F8425063F07F03D2
:103F500084F8513084F82C202AF00CFB037D84F87F
:103F60002B30C0E7807001204C08FE433400FE4334
:103F700090F84E322BB1D0F848320133C0F84832B5
:103F80007047012370B580F84E32044629F062FE76
:103F900006461CF0E9FC054650B3011D04F118006B
:103FA00025F044FD29F056FEB4F84432801B9842B7
:103FB00012D829F04FFEB4F84C32801B984211D829
:103FC0000022294620461CF02FFC28461CF046FC07
:103FD000002384F84E3270BDD4F848320133C4F85F
:103FE0004832E6E729F036FE801BA4F84C02E7E7EA
:103FF00084F84E0270BD00BF10B51E491E4B0A7AF0
:104000000132D2B2A3FB02031B0903EB4303A2EB71
:10401000C30313F0FF0382B00A7205D0174BDB789D
:10402000012B0FD002B010BD154A0B721468134B50
:104030000194019CDB78126812480092009A026099
:10404000012BEFD1104B114A5B6D186803681B6898
:1040500093420CD10E4B1B685B0502D5F82029F06A
:1040600069FC4FF60F002BF0CDFF02B010BDF82118
:104070009847F6E724B00020ABAAAAAAF8DF0020F0
:1040800050700120D4410220A4580120190B0000D7
:10409000348004402DE9F043DB48DFEDDC7ADFEDCE
:1040A000DC6ADFEDDC5A83B000F1080500224FF432
:1040B0000054B7EE005A7F2650F8043B93F82010C6
:1040C00011B19A7783F8202093F8341019B183F84E
:1040D000322083F8342093F8481019B183F8462031
:1040E00083F8482093F85C1019B183F85A2083F8BC
:1040F0005C2093F8701019B183F86E2083F870205B
:1041000093F8841019B183F8822083F8842093F8FF
:10411000F41109B183F8F42193F8B510C3F8904075
:1041200007EE101A93F8B910C3F89420B8EEC77AC6
:104130000129C3F89820C3F89C2083F8A62083F8AF
:10414000A52083F8A42083F8A32083F8A720C3F830
:10415000A82083F8A22083F8A12083F8A02087EE6E
:10416000276A00F04681C0F03B81022940F0368189
:1041700035EE467A27EE257AA6EE267ABCEEC77A89
:104180008DED017A9DF8041093F8B7700FB183F8A4
:10419000A01093F8B6700FB183F8A11093F8B8701F
:1041A0000FB183F8A21093F8C11007EE101A93F81C
:1041B000C510B8EEC77A012987EE276A00F003819F
:1041C000C0F0F880022940F0F38035EE467A27EE01
:1041D000257AA6EE267ABCEEC77A8DED017A9DF897
:1041E000041093F8C3E0BEF1000F06D093F8A0E0EE
:1041F0008E4538BF8E4683F8A0E093F8C2E0BEF14A
:10420000000F06D093F8A1E08E4538BF8E4683F8A4
:10421000A1E093F8C4E0BEF1000F06D093F8A2C06D
:10422000614538BF614683F8A21093F8BB1007EED2
:10423000101A93F8BF10B8EEC77A012987EE276AE3
:1042400000F0AB80C0F0A080022940F09B8035EEEA
:10425000467A27EE257AA6EE267ABCEEC77A8DED51
:10426000017A9DF8041093F8BDC0BCF1000F06D090
:1042700093F8A0C08C4538BF8C4683F8A0C093F853
:10428000BCC0BCF1000F06D093F8A1C08C4538BF6C
:104290008C4683F8A1C093F8BEC0BCF1000F06D0D5
:1042A00093F8A280414538BF414683F8A21093F8A5
:1042B000C71007EE101A93F8CB10B8EEC77A012991
:1042C00087EE276A53D049D3022945D135EE467A85
:1042D00027EE257AA6EE267ABCEEC77A8DED017A16
:1042E0009DF8041093F8C980B8F1000F06D093F838
:1042F000A080884538BF884683F8A08093F8C8809E
:10430000B8F1000F06D093F8A180884538BF8846E1
:1043100083F8A18093F8CA80B8F1000F06D093F813
:10432000A290494538BF494683F8A21057B9BCF15D
:10433000000F07D1BEF1000F04D1B8F1000F01D179
:1043400083F8A26085427FF4B7AE334BDB78012B54
:1043500064D003B0BDE8F0830021C3E726EE266AEF
:10436000BCEEC67A8DED017A9DF80410BAE726EE10
:10437000C67AA6EE257ABCEEC77A8DED017A9DF855
:104380000410AFE700216EE726EE266ABCEEC67A7F
:104390008DED017A9DF8041065E726EEC67AA6EE4B
:1043A000257ABCEEC77A8DED017A9DF804105AE7A4
:1043B000002116E726EE266ABCEEC67A8DED017A5C
:1043C0009DF804100DE726EEC67AA6EE257ABCEE1F
:1043D000C77A8DED017A9DF8041002E70021D3E63B
:1043E00026EE266ABCEEC67A8DED017A9DF80410A1
:1043F000CAE626EEC67AA6EE257ABCEEC77A8DED21
:10440000017A9DF80410BFE6C0EA00200000C8420F
:10441000000000000000FE42F8DF00200C4B0D4AB7
:104420005B6D186803681B6893420DD10A4B1B68CB
:104430005B0502D5FF2029F07DFA4FF60F7003B01F
:10444000BDE8F0432BF0DEBDFF219847F5E700BF44
:10445000A4580120190B00003480044008B50E4B0D
:10446000DB78012B00D008BD0C4B0D4A5B6D186842
:1044700003681B6893420CD10A4B1B685B0502D58D
:10448000FE2029F057FA4FF60F60BDE808402BF0E8
:10449000B9BDFE219847F6E7F8DF0020A4580120B7
:1044A000190B00003480044008B50E4BDB78012B5B
:1044B00000D008BD0C4B0D4A5B6D186803681B6883
:1044C00093420CD10A4B1B685B0502D5FC2029F0F6
:1044D00031FA4FF60F40BDE808402BF093BDFC21A8
:1044E0009847F6E7F8DF0020A4580120190B0000D8
:1044F0003480044008B50E4BDB78012B00D008BD9A
:104500000C4B0D4A5B6D186803681B6893420CD115
:104510000A4B1B685B0502D5FB2029F00BFA4FF60E
:104520000F30BDE808402BF06DBDFB219847F6E742
:10453000F8DF0020A4580120190B0000348004404B
:1045400008B50E4BDB78012B00D008BD0C4B0D4A93
:104550005B6D186803681B6893420CD10A4B1B689B
:104560005B0502D5FA2029F0E5F94FF60F20BDE8EA
:1045700008402BF047BDFA219847F6E7F8DF002006
:10458000A4580120190B00003480044008B50E4BDC
:10459000DB78012B00D008BD0C4B0D4A5B6D186811
:1045A00003681B6893420CD10A4B1B685B0502D55C
:1045B000F62029F0BFF94FF20F60BDE808402BF05C
:1045C00021BDF6219847F6E7F8DF0020A458012026
:1045D000190B0000348004401D4BDB78012B00D008
:1045E000704770B51B4E1C4D736D1A6813681B68BD
:1045F000AB4204461FD119490968490506D5F32085
:1046000029F098F9736D1A6813681B68AB4204F0BF
:104610007F0018D1114B1B685B0501D529F08AF981
:10462000200400F4FE0040F4734040F00200BDE8B6
:1046300070402BF0E7BC1046F3219847736D1A6861
:1046400013681B68E2E7014610469847E8E700BF99
:10465000F8DF0020A4580120190B0000348004402A
:104660001A4BDB78012B00D0704770B5184E194DEE
:10467000736D0446186803681B68AB421CD1164A68
:104680001268520506D5F12029F054F9736D1868A7
:1046900003681B68AB4216D10F4B1B685B0502D544
:1046A000204629F047F904F00F030C481B04184377
:1046B000BDE870402BF0A6BCF1219847736D1868D7
:1046C00003681B68E6E721469847ECE7F8DF00201F
:1046D000A4580120190B00003480044002F110009E
:1046E0000F4BDB78012B00D0704770B503461546A1
:1046F0000646A0200C462BF0D7FC6A1E12022404AA
:1047000004F4FE0402F470622243300142F4504289
:1047100042F00D02C0B21043BDE870402BF072BCF5
:10472000F8DF00202DE9F0478146884621F0BCFFE4
:104730002C4BDB78012B01D0BDE8F087DFF8B0A06F
:10474000294DDAF854301A6813681B68AB423CD123
:1047500026490968480507D5F02029F0EBF8DAF872
:1047600054301A6813681B68B8F1000F1ED01F4F31
:104770004C4609EB08060BE03968490506D529F0D7
:10478000D9F8DAF854301A6813681B68A6420DD0BD
:1047900014F8011BAB420846EED010469847DAF8F1
:1047A00054301A681368A6421B68F1D1AB4215D188
:1047B0000E4B1B685B0502D5F72029F0BBF841467C
:1047C0004846BDE8F04724F0EBBC1046F02198477E
:1047D000DAF854301A6813681B68C5E71046F721E9
:1047E0009847ECE7F8DF0020190B00003480044004
:1047F000A45801202DE9F84F3D4F1F298A468846CD
:104800008146A8BF4FF01F0A3E4607F1200500244D
:1048100096F84230E2B26BB199450BD00134022CCC
:1048200006F11E0605F10105F2D1FB78012B1ED021
:10483000BDE8F88F514615F8020C85F800A011F07C
:10484000ADFC2BF0B9FE83462A482BF065FE83456C
:10485000E4D1294B93F82820FF2A05D093F8532060
:1048600042F0100283F8532023F06AFDD6E709F1E5
:10487000FF395FFA89F30F2B1FD8204D204C6A6D4A
:10488000106802681268A24243F0C00108F07F0677
:1048900025D11C4B1B685F0506D5084629F04AF850
:1048A0006B6D186803681A68A2421ED1154B1B680D
:1048B0005B0502D5304629F03DF84FEA084808F478
:1048C000FE084FEA092948F4404848F00C0809F46A
:1048D000706040EA0800BDE8F84F2BF093BB9047AA
:1048E0006B6D186803681A68DEE731469047E4E7A5
:1048F000F8DF0020450C010080700120A458012041
:10490000190B00003480044038B5214B93F8422045
:10491000B2B3904234D093F860202AB1904203D0D1
:10492000DB78012B09D038BD1A4ADB78526801F5D3
:104930000054012BC2F89040F5D1054601F5005016
:104940000C462A46C0F3C61100F07F002BF020FC75
:1049500004F30D0101F50051681E0B04000203F47D
:10496000FE0300F47060184340F46040490440F0D6
:104970000E0001F0FE410843BDE838402BF042BB79
:10498000044A126801F50054C2F89040C3E700BF22
:10499000F8DF0020C0EA002090F8253090F82910B8
:1049A000DFEDC07A827D70B407EE103AB8EEC77AB8
:1049B0000023012983B0C7EE276A8374437403740C
:1049C00000F00181C0F0F280022900F0DA8090F856
:1049D000272002B1037490F8262002B1437490F8A6
:1049E000282002B1837490F8313090F83510DFED53
:1049F000AD7A07EE103AB8EEC77A0129037DC7EE0B
:104A0000276A00F0F180C0F00081022900F0A48044
:104A1000002390F8331021B1017C994238BF194628
:104A2000017490F8321021B1417C994238BF194687
:104A3000417490F8344024B1817C8B4238BF0B46DE
:104A4000837490F82B3090F82F10DFED967A07EEF4
:104A5000103AB8EEC77A0129437DC7EE276A00F005
:104A6000EE80C0F0DF80022940F01A81B7EE007AB4
:104A700007EE903A37EE667A9FED8B6AF8EEE77AAA
:104A800027EE067AA6EEA77AFCEEC77ACDED017A7C
:104A90009DF8043090F82D1021B1017C994238BF67
:104AA0001946017490F82C1021B1417C994238BF0D
:104AB0001946417490F82E1021B1857CAB4238BF65
:104AC0002B46837490F8373090F83B50DFED757AC1
:104AD00007EE103AB8EEC77A012DC37CC7EE276AFD
:104AE00000F0CD80C0F0BE80022D40F0B980B7EE5E
:104AF000007A07EE903A37EE667A9FED6B6AF8EE31
:104B0000E77A27EE067AA6EEA77AFCEEC77ACDED15
:104B1000017A9DF8043090F8395025B1057C9D420A
:104B200038BF1D46057490F8385025B1457C9D422C
:104B300038BF1D46457490F83A5025B1867CB34283
:104B400038BF3346837422B919B914B90DB97F231C
:104B5000837403B070BC7047B7EE007A07EE903AEA
:104B600037EE667A9FED506AF8EEE77A27EE067A1E
:104B7000A6EEA77AFCEEC77ACDED017A9DF8043057
:104B800047E7B7EE007A37EE667A9FED476A07EEA1
:104B9000902A27EE067AF8EEE77AA6EEA77AFCEEE0
:104BA000C77ACDED017A9DF8043010E707EE902A20
:104BB000F8EEE77A67EEA67AFCEEE77ACDED017AB9
:104BC0009DF8043003E707EE902AF8EEE77A9FEDB0
:104BD000367A66EEE77AE6EE877AFCEEE77ACDED96
:104BE000017A9DF80430F2E607EE903AF8EEE77AA3
:104BF0009FED2D7A66EEE77AE6EE877AFCEEE77AAD
:104C0000CDED017A9DF8043003E707EE903AF8EE17
:104C1000E77A67EEA67AFCEEE77ACDED017A9DF8A9
:104C20000430F6E607EE903AF8EEE77A67EEA67AF9
:104C3000FCEEE77ACDED017A9DF804302AE707EE25
:104C4000903AF8EEE77A9FED187A66EEE77AE6EEAC
:104C5000877AFCEEE77ACDED017A9DF8043019E70A
:104C6000002358E707EE903AF8EEE77A67EEA67A67
:104C7000FCEEE77ACDED017A9DF804304BE707EEC4
:104C8000903AF8EEE77A9FED087A66EEE77AE6EE7C
:104C9000877AFCEEE77ACDED017A9DF804303AE7A9
:104CA0000023F7E60000C8420000FE422DE9F84F5D
:104CB000DFF8E082B14DD8F854301A6813681B68E9
:104CC000AB428B4640F06A81AD490968480507D57B
:104CD000F02028F02FFED8F854301A6813681B68AB
:104CE000A74F0BF5805607360BF1FF340BE0396800
:104CF000490506D528F01EFED8F854301A68136806
:104D00001B68B4420DD014F8011FAB420846EED028
:104D100010469847D8F854301A681368B4421B6894
:104D2000F1D1AB4240F02681954B1B685B0502D563
:104D3000F72028F0FFFD9BF801309BF80000914C14
:104D4000DFF854A21B0643EA004040F4704040F0F4
:104D500004002BF057F90BF105060BF5805804F110
:104D60001405A146374608F10A0817F8022C17F86F
:104D7000033C17F8010C120442EA0323226943F0B2
:104D8000040343EA0060002A37D0B9F842209208B1
:104D900072B694F8521094F85330C9B28A42DBB21A
:104DA00065D9002B67D09A4265D903F1010EE16BFA
:104DB0005FFA8EFC41F8230084F853C072B6DAF82B
:104DC00000306BB1AB4200F0B7809B6943B16E49D4
:104DD0008B4202D180E0AB427ED09B69002BFAD19E
:104DE00062B6724540F28980802A40F2DC51664802
:104DF00028BFC82117F0C8FD62B603374745B4D1B4
:104E000041F207031BF80300000240F4770040F072
:104E100006002BF0F7F89BF801309BF800001B060A
:104E200043EA004040F4704040F004001BF06EFF85
:104E300016F8023C16F8032C16F8010C1B0443EA82
:104E4000022343F0040343EA006003361BF05EFFD5
:104E5000B045EDD141F207031BF80300000240F416
:104E6000770040F00600BDE8F84F1BF04FBF9A42B4
:104E70009BD862B68CE701F1010EA36B5FFA8EFC42
:104E800043F8210084F852C072B6DAF8003063B1FA
:104E9000AB4239D09B6943B13B498B4202D10EE012
:104EA000AB420CD09B69002BFAD162B672459BD8FD
:104EB0009200344BA16B206917F0BEFB9CE7216B7D
:104EC000E36A8B61E36A002BEFD0D9F82800D9613F
:104ED000596901445961E8E7216BE36A8B61E36A30
:104EE000002B3FF47DAFD9F82800D96159690144FE
:104EF000596162B672453FF677AF9200214BE16B84
:104F0000206917F099FB77E7D9F82C301F4900206A
:104F1000086063B309681E4821F07F4C59696144F9
:104F20005961016019494FF0404CC1F800C000219F
:104F3000D961CAF80030B8E7D9F82C3013490020FD
:104F400008608BB10968124821F07F4C59696144AF
:104F5000596101600D494FF0404CC1F800C000217B
:104F6000D961CAF800303BE7CAF8003038E7CAF820
:104F700000309AE71046F7219847DCE6190B00004D
:104F80003480044040690120546901208C100A409B
:104F900088100A40A4580120E00C01201046F0219E
:104FA0009847D8F854301A6813681B6898E600BF11
:104FB0002DE9F043ABB02AAA1B23012402F8A03D3F
:104FC000432500238DF807408DF8050001398DF841
:104FD00004508DF806300DF1A30411F8010F02F80A
:104FE000010F1B1A9442DBB2F7D1DFF83081494E32
:104FF000D8F8542015682A68126803F07F03B2427B
:105000008DF8A4307DD1444B1B68580507D5F0209E
:1050100028F090FCD8F854301D682B681A68DFF827
:10502000F8900DF1030429AF0CE0D9F800305905D0
:1050300006D528F07FFCD8F854301D682B681A6814
:10504000BC420DD014F8011FB2420846EDD02846EC
:105050009047D8F854301D682B68BC421A68F1D1CB
:10506000B2424AD12C4B1B685B0502D5F72028F0D1
:1050700061FC9DF805309DF804701B0643EA074764
:1050800047F4704747F0040738462AF0BBFF0DF19C
:1050900009052E462AAC16F8023C16F8032C16F821
:1050A000010C1B0443EA022343F0040343EA0060BB
:1050B00003362AF0A7FFA642EDD14FF205702AF081
:1050C000A1FF38461BF022FE15F8023C15F8032C10
:1050D00015F8010C1B0443EA022343F0040343EADE
:1050E000006003351BF012FEA542EDD14FF20570B2
:1050F0002BB0BDE8F0431BF009BE2846F7219047CE
:10510000B7E72846F0219047D8F854301D682B683F
:105110001A6884E7190B000034800440A458012069
:105120002DE9F047461EF3B20F2B0D46144632D838
:10513000DFF8BC902C4FD9F8542010680268126830
:10514000BA4243F0B00105F07F0A04F07F0839D17C
:10515000264B1B685B0507D5084628F0EBFBD9F802
:105160005430186803681A68BA4235D11F4B1B685F
:10517000590507D5504628F0DDFBD9F8543018689A
:1051800003681A68BA4224D1184B1B685B0502D524
:10519000404628F0CFFB3302240604F0FE4403F41B
:1051A0007063234343F430432C0443F00B0304F4B3
:1051B000FE041C4320462AF025FF2046BDE8F047A8
:1051C0001BF0A4BD9047D9F85430186803681A68DA
:1051D000CAE741469047DEE751469047D9F8543038
:1051E000186803681A68CDE7190B00003480044082
:1051F000A4580120FFFFFFFFF0B587B02AF0E2FCC2
:10520000002866D12AF0C8FC00BB23F08BFDD8B182
:1052100006AC23F077FD4FF4897344F8043DA04DAC
:10522000A04BE97C00221A705A709A70DA701A71D9
:105230005A719A712046FEF751FA40F21313297DF4
:1052400005932046FEF74AFA07B0F0BD964B93F857
:105250005030C3F380041CB1924A9179002968D17F
:105260005A10D00740F198808E494879002800F004
:10527000938000234B71002C5DD18C4E884D327889
:105280008B49AB18C989DB7C002900F0FE800A2914
:1052900000F2FD8007EE901AF8EE677AF7EE086AE2
:1052A00087EEA67AF6EE007A77EE277AFCEEE77ABA
:1052B000CDED037ABDF80C105B1A642BA8BF6423F4
:1052C000C2EB021023EAE37305EB4000DBB2A9183E
:1052D0005AE0744B754E724D00241C705C709C70CB
:1052E000DC701C715C719C7111F0BCF933787148F1
:1052F0001D440127EB7C009700EE103A6422B8EEC3
:10530000400A0323F7EE000A21462AF02BFB3078EF
:105310001FF0D4F821460E2029F082F9204623F010
:1053200049FC21460F2029F07BF9384623F042FC46
:1053300068E7002393715D4E594D31785C4B6A18D4
:10534000DB89D27C002B00F09C800A2B00F29B8032
:1053500007EE903AF8EE677AF7EE086A87EEA67ADB
:10536000F6EE007A77EE277AFCEEE77ACDED037A57
:10537000BDF80C301A44642AC1EB0110A8BF6422A6
:1053800005EB4000D3B2294490F84200CB741A4692
:105390006A21FFF7C5FE07E0D90703D5414B19780D
:1053A00000294DD13E4D414E337842482B440021D7
:1053B000DB7C009100EE103AF7EE000AB8EE400AEE
:1053C000032364222AF0CEFA33783B4A9FED3B6AEE
:1053D00052F823409FED3A7A1D44EB7C07EE903A59
:1053E000F8EE677AC7EE866A76EE877A17EE900A4D
:1053F0002CF034FB9FED281B41EC100B33F028FB05
:1054000051EC100B2CF07EFB9FED2E7A07EE900AEC
:10541000F4EEC77AF1EE10FA0EDC9FED2B7AF4EE83
:10542000C77AF1EE10FA09D407EE100ABEEEC87A78
:1054300017EE103AE361E8E6244BFBE7244BF9E76B
:1054400000211970002C7FF476AFD3073FF515AF1C
:10545000164E134D3378B3FA83F35B091846337055
:105460001FF02CF821460E2029F0DAF8204623F010
:10547000A1FB21460F2029F0D3F8012023F09AFB4D
:1054800092E7012376E7072374E7012114E7072158
:1054900012E700BFAFF30080000000A0999901401F
:1054A000F8DF002028790120807001208CE00020A6
:1054B00000790120C8D3030084E000200000C84226
:1054C0000000000000FEFF4600FEFFC60000FF7F58
:1054D00000000180F0B587B02AF074FB002865D188
:1054E0002AF05AFB00BB23F01DFCD8B106AC23F018
:1054F00009FC4FF4887344F8043DA44DA44B697C27
:1055000000221A705A709A70DA701A715A719A7170
:105510002046FEF7E3F840F21113A97C05932046DC
:10552000FEF7DCF807B0F0BD9A4B93F85030C3F3A8
:1055300080041CB1964A9179002967D15A10D1078D
:1055400040F183809249487900287ED000234B7136
:10555000002C5DD1904E8D4D32789049AB18C989A1
:105560005B7C002900F0B6810A2900F2B58107EEC4
:10557000901AF8EE677AF7EE086A87EEA67AF6EEEA
:10558000007A77EE277AFCEEE77ACDED037ABDF864
:105590000C105B1A192BA8BF1923C2EB021023EAC7
:1055A000E37305EB4000DBB2A91846E0784B7A4E76
:1055B000764D00241C705C709C70DC701C715C71FA
:1055C0009C7111F04FF8337875481D4401276B7CAE
:1055D000009700EE103A1922B8EE400A0323F2EECB
:1055E000040A21462AF0BEF930781EF067FF2146F2
:1055F0000E2029F015F8204623F0DCFA21460F2072
:1056000029F00EF8384623F0D5FA69E700239371A4
:10561000614E5E4D3178614B6A18DB89527C002BFC
:1056200040F03A8101231A44192AC1EB0110A8BFA6
:10563000192205EB4000D3B2294490F842004B7484
:105640001A466921FFF76CFD08E0DB0704D5504BD3
:105650001978002940F0FF804C4D4F4E3378504868
:105660002B4401245B7C009400EE103A19220323A2
:10567000B8EE400A0021F2EE040A2AF073F93278FB
:1056800015446B7C002B50D1464B53F822100A7EF8
:10569000002302F0FE020A7633B10B6A7F33DB0986
:1056A0002344002B38BF0023960706D5486A7F3075
:1056B000C0090130834238BF0346550706D5886AC2
:1056C0007F30C0090130834238BF0346140706D536
:1056D000C86A7F30C0090130834238BF0346D00614
:1056E00006D5086B7F30C0090130834238BF0346BE
:1056F000970606D5486B7F30C0090130834238BF1A
:105700000346560606D5886B7F30C00901308342B8
:1057100038BF0346D20906D0CA6B7F32D2090132A4
:10572000934238BF1346CB83DDE6192BA8BF19235C
:1057300003EB83035B0007EE903AF8EEE77A194B30
:10574000F5EEC07AF1EE10FA53F8222000F1B9809C
:10575000DFED156A1549B6EE007AA7EEA67AFCEEE3
:10576000C77A17EE903A8B4240F2AD800B464FF469
:105770005074117ECD071BD4D08B1362844241F04C
:10578000010188BFD4831176ADE600BFF8DF0020A9
:1057900028790120807001208CE000200079012010
:1057A000D8D3030090E0002079783042809F010038
:1057B000106A834249D803F17F00C00901300028F4
:1057C0001362034638BF0023880706D5506A7F302E
:1057D000C0090130834238BF03464F0706D5906A9F
:1057E0007F30C0090130834238BF03460E0706D51B
:1057F000D06A7F30C0090130834238BF0346CD06EE
:1058000006D5106B7F30C0090130834238BF034694
:105810008C0606D5506B7F30C0090130834238BFFB
:105820000346480606D5906B7F30C009013083429D
:1058300038BF0346C90906D0D16B7F31C909013190
:105840008B4238BF0B46D3834DE6D18B13628C421B
:1058500088BFD48347E600211970002C7FF4D8AEAE
:10586000D7073FF577AE1D4E1D4D3378B3FA83F35E
:105870005B09184633701EF021FE21460E2028F0E9
:10588000CFFE204623F096F921460F2028F0C8FECF
:10589000012023F08FF9E1E60A2B19D807EE903AA0
:1058A000F8EE677AF7EE086A87EEA67AF6EE007AE7
:1058B00077EE277AFCEEE77ACDED037ABDF80C306F
:1058C000B1E6002355E703F17F04E409013450E712
:1058D0000723A8E601215CE607215AE68CE00020B8
:1058E000F8DF0020F0B587B02AF06CF9002866D107
:1058F0002AF052F900BB23F015FAD8B106AC23F018
:1059000001FA4FF4877344F8043D944D944BE97BBE
:1059100000221A705A709A70DA701A715A719A715C
:105920002046FDF7DBFE40F20F13297C059320464D
:10593000FDF7D4FE07B0F0BD8A4B93F85030C3F3A7
:1059400080041CB1864A9179002968D15A10D00789
:1059500040F1988082494879002800F09380002324
:105960004B71002C5DD1804D7C4E2A787F49B31855
:10597000C989DB7B002900F0ED800A2900F2EC8068
:1059800007EE901AF8EE677AF7EE086A87EEA67AC5
:10599000F6EE007A77EE277AFCEEE77ACDED037A21
:1059A000BDF80C105B1A642BA8BF6423C2EB021075
:1059B00023EAE37306EB4000DBB2B1185AE0684B10
:1059C000694D664E00241C705C709C70DC701C710C
:1059D0005C719C7110F046FE2B7865481E440127CF
:1059E000F37B009700EE103A6422B8EE400A0323DE
:1059F000F7EE000A214629F0B5FF28781EF05EFD7B
:105A000021460E2028F00CFE204623F0D3F8214634
:105A10000F2028F005FE384623F0CCF868E7002375
:105A20009371514D4D4E2978504B7218DB89D27BC2
:105A3000002B00F08B800A2B00F28A8007EE903A50
:105A4000F8EE677AF7EE086A87EEA67AF6EE007A45
:105A500077EE277AFCEEE77ACDED037ABDF80C30CD
:105A60001A44642AC1EB0110A8BF642206EB40006F
:105A7000D3B2314490F84200CB731A465D21FFF750
:105A80004FFB07E0D90703D5354B197800293DD1E5
:105A9000324E354D2B78364833440021DB7B009164
:105AA00000EE103A64220323B8EE400AF7EE000A33
:105AB00029F058FF2B782F4ADFED2F5A52F8232078
:105AC0009FED2E6ADFED2E6A1E44F37B07EE103A3F
:105AD000BBEEEF7AC7EE257A77EE867AF4EEE67AB9
